:100000000C9444230C9475230C9475230C94752341
:100010000C9475230C9475230C9475230C94752300
:100020000C9475230C9475230C9475230C947523F0
:100030000C9475230C943DD80C9475230C94752363
:100040000C9475230C9485920C9475230C94752351
:100050000C9475230C9475230C9495A10D94221B7C
:100060000C9475230C9403410C94CE400C9475238E
:100070000C9475230C9475230C9475230C947523A0
:100080000C9475230C9475230C9475230C94752390
:100090000C9475230C9475230C9475230C94752380
:1000A0000C9475230C9475230C9475230C94752370
:1000B0000C9475230C9475230C9475230C94752360
:1000C0000C9475230C9475230C9475230C94752350
:1000D0000C9475230C9475230C9475230C94752340
:1000E0000C94752335414541564161416941804138
:1000F0006D4180417141754180417B41B47297727D
:100100009A72B7729D72A072A372AF72A672C27217
:10011000A972AC723CD76ED770D77FD784D73AD745
:100120008FD73302430217016901D7003F017F01D6
:100130003101C901C3005101EB0071012D013F01E3
:10014000CF00BB011D012F02F7010302B701C1015E
:10015000ED010F02D500A901B500F50005017901F7
:10016000D100ED0107016101D7010D9460090C94E4
:1001700097720C94B3590C94F4590C94F6590C944E
:10018000577C0C943F7C0D9468070C94916F0C94F1
:100190003CD70C9494730C94AC720C945D7C0D94CD
:1001A00080070D948D090C94BA5B0D944E090D9443
:1001B0004F070C940D790C944F9A0C94BDD60D9466
:1001C00090010C94CA6B0D948A010C9471410C94AB
:1001D000D9910C943A9B0D9472070C94067F0C9461
:1001E00055730D9422010D948D030D946A090D949D
:1001F000D8010C94E35E0C943AD70C94849E0D9431
:100200006A230C9415730C9459A10D9474090D94E0
:1002100097090C94697C0C9475410C946ED70C94DE
:100220008D6F0C943C730C9466770C949D6F0D94B9
:1002300045070C940A740C94AF9B0D9488070C949A
:10024000FFD20C94B4720D9492030C9421730C940D
:1002500070D70C945DA10C94816F0D947A070C9467
:10026000DD7D0D945E070C9415B30C94397C0C94D1
:10027000C5780C94A6720C94A9720C941A6B0D9408
:100280008D070C94C2720C9404740C94F9640D9450
:1002900066010C94B7720C947C9A0C94D4700C94F4
:1002A000DFD60D946C070C9435410C94517C0C9462
:1002B000709C0C942F9B0C947FD70C94007F0C9413
:1002C00056410D94A1090C94A6AB0C945BA10C941F
:1002D000796F0D9449070C9424D70D948E050C94D6
:1002E000EAE10D9476070C94457C0D9483030C94FD
:1002F00057A10D9483090C94AD730C94ED4E0D949D
:100300005A070C9455A10C942EB30C94EA7D0C94CE
:1003100061410C9446A10C946E6C0C94E56B0D94A9
:10032000C1040D9441230C94D1700C949A9F0C94A9
:100330004F9B0C94EE590C940E740C9404760D940F
:1003400070010C94D47D0C94E87D0C940B5D0C949E
:10035000F0590D9456090C94085F0C94E4D10C9458
:10036000CE700C948FD70C94016C0C941D6C0D9472
:1003700032090C94F2590D9484070C947B410D942E
:10038000E0030D943C090C9445410C94B9830C9402
:100390004B7C0D9464070C947D6F0C9481730C94CA
:1003A00069410C94AF720C94386C0C9439740D94B0
:1003B000AB090C94A3720D9496010C94F8740C94F0
:1003C000146B0C942DA10C941A770C946E730D94ED
:1003D00061010C94B0D00C94EB730D94B5090C949E
:1003E000AF6B0C94D8730C941F650C9429770D9403
:1003F00023090C94996F0C94337C0D94E8030C94AE
:10040000E75E0C94CBD10D9428090C94D7820D94FF
:100410006B010C94536C0C94C6730C94B17D0D94C9
:1004200046090C9426740C9451810C94A0720C947F
:100430009DD50C9484D70C941A740C9407740C9466
:100440009D720C949A720C94637C0C94956F0C942E
:100450006D410C9480410C94679B0C94D8760D945C
:100460001E090D9488030D9453070C94A94D0C9408
:10047000E67D0C94889C0C94FA7D0C94856F0C940A
:100480000B740C94896F0D9456070C9493D60D94AD
:100490009C014E414E494E495459494E46CDCCCC13
:1004A0003D0AD7233C17B7D13877CC2B329595E648
:1004B000241FB14F0A000020410000C84200401C28
:1004C0004620BCBE4CCA1B0E5AAEC59D7400407A75
:1004D00010F35A00A0724E18090010A5D4E80000CD
:1004E000E87648170000E40B54020000CA9A3B006B
:1004F0000000E1F505000080969800000040420FE2
:10050000000000A08601000000102700000000E8A5
:1005100003000000006400000000000A000000006A
:10052000000100000000002C76D888DC674F08230B
:10053000DFC1DFAE59E1B1B796E5E3E453C63AE671
:1005400051997696E8E6C28426EB898C9B62ED4051
:100550007C6FFCEFBC9C9F40F2BAA56FA5F49005A0
:100560005A2AF75C936B6CF9676DC11BFCE0E40DD4
:1005700047FEF520E6B500D0ED902E0300943577C8
:10058000050080841E080000204E0A000000C80CF0
:10059000333333330F986E12831141EF8D21148959
:1005A0003BE65516CFFEE6DB18D1844B381BF77CB3
:1005B0001D901DA4BBE424203284725E228100C9F8
:1005C000F124ECA1E53D27434F4D4D554E494341A4
:1005D00054494F4E0044525952554E004552524FC5
:1005E000525300494E464F004543484F00D0A1D0DA
:1005F000BED0BD2E2E2E004D65736820706F696EC3
:10060000742063616E6E6F74206265207265736F13
:100610006C7665640A00D09FD180D0BED0B4D0BEC5
:10062000D0BBD0B6D0B8D182D18C2E2E2E00D09D8A
:10063000D0B5D18220D0B4D0B2D0B8D0B6D0B5D059
:10064000BDD0B8D18F2E00456E642066696C6520E0
:100650006C6973740A00426567696E2066696C652F
:10066000206C6973740A00286E6F2066696C6529B6
:100670000043757272656E742066696C653A20007D
:100680005344207072696E74696E67206279746574
:1006900020004E6F74205344207072696E74696E2E
:1006A000670A0044656C6574696F6E206661696CE9
:1006B00065642C2046696C653A200046696C6520AB
:1006C00064656C657465643A005072696E74207478
:1006D000696D653A2000496E76616C6964205069E5
:1006E0006E204D6F64650A000A53746174733A207A
:1006F00046696C616D656E7420757365643A20009F
:100700002C204C6F6E67657374206A6F623A20000C
:10071000546F74616C2074696D653A20002C20461A
:1007200061696C65643A20002C2046696E697368C3
:1007300065643A20005072696E74733A20005374F5
:100740006174733A2000D09ED185D0BBD0B0D0B6B2
:10075000D0B4D0B5D0BDD0B8D0B52E2E2E00D09DFF
:10076000D0B0D0B3D180D0B5D0B22E2E2E0045203F
:100770002553006F66660044454255473A004D31A7
:1007800031332053006933204D656761204F464661
:100790002E004348414D4245525F54454D5045520D
:1007A0004154555245004D4F54494F4E5F4D4F44B3
:1007B000455300544845524D414C5F50524F5445AB
:1007C0004354494F4E004155544F5245504F525497
:1007D0005F53445F5354415455530050524F4D5052
:1007E000545F535550504F525400454D4552474564
:1007F0004E43595F50415253455200434153455F68
:100800004C494748545F4252494748544E45535318
:1008100000544F47474C455F4C4947485453005399
:100820004F4654574152455F504F5745520042552D
:10083000494C445F50455243454E54004C45564543
:100840004C494E475F44415441005A5F50524F4219
:1008500045004155544F4C4556454C005052494E69
:10086000545F4A4F420050524F4752455353004144
:1008700055544F5245504F52545F54454D500056B9
:100880004F4C554D45545249430042494E415259EF
:100890005F46494C455F5452414E534645520053C2
:1008A000455249414C5F584F4E5F584F46460046AF
:1008B00049524D574152455F4E414D453A4D617247
:1008C0006C696E20322E302E352E3420284261760F
:1008D000617269616E2D436872697329204D4152BE
:1008E0004C494E2D4149334D5F56455253494F4E69
:1008F0003A76322E302E3520534F555243455F43C2
:100900004F44455F55524C3A68747470733A2F2FB8
:100910006769746875622E636F6D2F4D61726C69C3
:100920006E4669726D776172652F4D61726C696E8A
:100930002050524F544F434F4C5F56455253494FEE
:100940004E3A312E30204D414348494E455F54596F
:1009500050453A6933204D656761204558545255DA
:100960004445525F434F554E543A31205555494402
:100970003A63656465326132662D343161322D34FB
:100980003734382D396231322D633535633632666E
:1009900033363766660A002F2F20004D313435205C
:1009A000533C696E6465783E206F7574206F6620D5
:1009B00072616E67652028302D31290A004163631A
:1009C000656C65726174696F6E3A2050003F4A2011
:1009D0006F7574206F662072616E67652028302EF7
:1009E000303120746F20302E33290A0046523A00ED
:1009F00020466C6F773A200050726F74656374659F
:100A0000642050696E0A004D424C2041646A75733F
:100A100074205A00496E76616C696420657874723E
:100A2000756465720A0020643A0020693A002070FB
:100A30003A004C434420436F6E74726173743A20E1
:100A4000006469730043290A0061626C65642028B0
:100A50006D696E2074656D702000436F6C64206555
:100A6000787472756465732061726520004D34324C
:100A70003120696E636F7272656374207061726198
:100A80006D657465722075736167650A00D09AD0D0
:100A9000BED180D180D0B5D0BAD186D0B8D0B82060
:100AA000D0BFD180D0B8D0BCD0B5D0BDD0B5D0BD2E
:100AB000D18B004572723A20546F6F2066617221AB
:100AC00000546F6F206661722066726F6D207265D0
:100AD000666572656E636520706F696E740A0045A5
:100AE0004550524F4D204F4B0A00205A323A004495
:100AF00075616C20456E6473746F702041646A7513
:100B000073746D656E7420286D6D293A200020285D
:100B1000302D313029002076616C7565206F757439
:100B2000206F662072616E676500416476616E6356
:100B300065204B3D00446F6E65207072696E74696C
:100B40006E672066696C650A004D3737004D33319A
:100B500000E805E305DC05D505C7054572726F722F
:100B60002077726974696E6720746F204545505212
:100B70004F4D210A00627573793A20706175736573
:100B80006420666F7220696E7075740A00627573F6
:100B9000793A2070617573656420666F7220757391
:100BA00065720A00627573793A2070726F636573BB
:100BB00073696E670A00D09ED0A1D0A2D090D09D5C
:100BC000D09ED092D09BD095D09DD09E2E2000500C
:100BD00072696E7465722073746F707065642064DE
:100BE000756520746F206572726F72732E2046696E
:100BF0007820746865206572726F7220616E64205F
:100C0000757365204D39393920746F20726573749E
:100C10006172742E202854656D70657261747572EE
:100C2000652069732072657365742E205365742086
:100C30006974206166746572207265737461727480
:100C4000696E67290A004E6F20436865636B737590
:100C50006D2077697468206C696E65206E756D62B1
:100C600065722C204C617374204C696E653A2000CB
:100C7000636865636B73756D206D69736D61746313
:100C8000682C204C617374204C696E653A20004CCE
:100C9000696E65204E756D626572206973206E6F96
:100CA00074204C617374204C696E65204E756D62C2
:100CB00065722B312C204C617374204C696E653A3F
:100CC00020004D313130005344207265616420654D
:100CD00072726F720A002121204B494C4C206361D3
:100CE0007573656420627920746F6F206D75636819
:100CF00020696E6163746976652074696D65202D65
:100D00002063757272656E7420636F6D6D616E64C1
:100D10003A2000D0A1D0B4D0B5D0BBD0B0D0B9D19A
:100D200082D0B520D181D0B1D180D0BED18100D0C8
:100D30009FD0A0D098D09DD0A2D095D0A020D09EFA
:100D4000D0A1D0A2D090D09DD09ED092D09BD09553
:100D5000D09D0025533A20255300D0A3D091D098A0
:100D6000D0A2D09E2E20005072696E7465722068E9
:100D7000616C7465642E206B696C6C28292063613A
:100D80006C6C6564210A00363726032B3C3D382AFB
:100D90002E303E1224221E1A1C1808440A2C430826
:100DA00009072C07000124F4D43050C38E20C2A2BE
:100DB0004017828B7011127A910D816CD90AA8614B
:100DC000E108C7586607615143061E4B5D05C145E2
:100DD000A7041A411104093D9803713931034036C3
:100DE000DB0265339102D4305402802E1D02632C45
:100DF000EE01752AC501B028A001102781018F25B9
:100E000064012B244B01E0223401AC211F018D2011
:100E10000D01801FFC00841EED00971DDF00B81C33
:100E2000D200E61BC600201BBC00641AB200B21937
:100E3000A8000A19A0006A189900D117910040175C
:100E40008B00B516840031167E00B31579003A1573
:100E50007300C7146F0058146A00EE1366008813FD
:100E6000630025135E00C7125B006C125700151259
:100E70005400C111510070114F0021114B00D610C8
:100E800049008D1047004610440002104200C00F78
:100E90004000800F3E00420F3C00060F3B00CB0E8F
:100EA0003800930E37005C0E3500270E3400F30D2A
:100EB0003200C10D3100900D3000600D2E00320D5A
:100EC0002D00050D2C00D90C2B00AE0C2900850C33
:100ED00029005C0C2700350C27000E0C2600E80BBF
:100EE0002400C40B2400A00B23007D0B23005A0B0D
:100EF0002100390B2100180B2000F80A1F00D90A25
:100F00001E00BB0A1E009D0A1D00800A1D00630A08
:100F10001C00470A1B002C0A1B00110A1A00F709C3
:100F20001A00DD091900C4091900AB09190092095A
:100F300017007B091800630917004C0916003609D1
:100F40001600200916000A091500F5081500E0082A
:100F50001400CC081400B8081400A4081400900869
:100F600013007D0812006B08130058081200460891
:100F700012003408110023081100120811000108A2
:100F80001100F0071000E0071000D0071000C007A4
:100F90001000B0070F00A107100091070E00830793
:100FA0000F0074070F0065070E0057070E00490772
:100FB0000E003B070D002E070E0020070D00130743
:100FC0000D0006070D00F9060C00ED060D00E00609
:100FD0000C00D4060C00C8060C00BC060C00B006C1
:100FE0000C00A4060B0099060C008D060B0082066F
:100FF0000B0077060B006C060B0061060A00570613
:101000000B004C060A0042060A0038060A002E06AB
:101010000A0024060A001A060A001006090007063C
:101020000A00FD050900F4050900EB050900E205C9
:101030000900D9050900D0050900C7050900BE054A
:101040000900B5050800AD050800A50509009C05C7
:101050000800940508008C050800840508007C053C
:101060000800740508006C050700650508005D05AB
:101070000700560508004E05070047050700400514
:10108000080038050700310507002A050700230579
:1010900007001C050600160507000F0507000805D8
:1010A000060002050700FB040600F5040700EE0435
:1010B0000600E8040600E2040700DB040600D5048D
:1010C0000600CF040600C9040600C3040600BD04E0
:1010D0000600B7040600B1040500AC040600A6042F
:1010E0000600A00405009B0406009504050090047A
:1010F00006008A04050085040500800406007A04C1
:10110000050075040500700405006B040500660405
:101110000500610405005C04050057040500520445
:1011200005004D04050048040500430405003E0485
:1011300004003A04050035040500300404002C04C2
:10114000050027040400230405001E0404001A04FB
:10115000040016040500110404000D040400090431
:1011600005000404040000040400FC030400F80368
:101170000400F4030400F0030400EC030400E8039B
:101180000400E4030400E0030400DC030400D803CB
:101190000400D4030400D0030400CC030400C803FB
:1011A0000300C503030024F404D9201BC40C5C0E07
:1011B0009804C4095F0265077101F405F900FB0496
:1011C000B30048048700C1036900580355000303B6
:1011D0004500BE023A008402310053022A0029026F
:1011E000250004022000E4011C00C8011900AF0121
:1011F00017009801140084011300710110006101AF
:10120000100051010E0043010D0036010B002B01AF
:101210000B0020010B00150109000C01090003015E
:101220000800FB000800F3000800EB000700E400E2
:101230000600DE000600D8000600D2000600CC0042
:101240000500C7000500C2000500BD000400B9008C
:101250000400B5000400B1000400AD000400A900C2
:101260000400A5000300A20003009F0004009B00EF
:101270000300980003009500020093000300900013
:1012800003008D0002008B0003008800020086002E
:10129000020084000300810002007F0002007D0044
:1012A00002007B0002007900020077000100760056
:1012B00002007400020072000100710002006F0061
:1012C00002006D0001006C0002006A00010069006C
:1012D0000200670001006600010065000100640073
:1012E00002006200010061000100600001005F0077
:1012F00002005D0001005C0001005B0001005A007B
:10130000010059000100580001005700010056007B
:10131000010055000100540001005300000053007B
:1013200001005200010051000100500001004F0077
:1013300001004E0000004E0001004D0001004C0075
:1013400001004B0000004B0001004A000100490071
:10135000010048000000480001004700010046006D
:101360000000460001004500000045000100440067
:101370000100430000004300010042000000420061
:1013800001004100000041000100400001003F0059
:1013900000003F0001003E0000003E0001003D0053
:1013A00000003D0001003C0000003C0000003C004B
:1013B00001003B0000003B0001003A0000003A0041
:1013C0000100390000003900010038000000380039
:1013D000000038000100370000003700010036002F
:1013E0000000360000003600010035000000350026
:1013F000000035000100340000003400000034001B
:10140000010033000000330000003300010032000F
:101410000000320000003200010031000000310005
:1014200000003100010030000000300000003000FA
:1014300001002F0000002F0000002F0000002F00EF
:1014400001002E0000002E0000002E0001002D00E3
:1014500000002D0000002D0000002D0001002C00D8
:1014600000002C0000002C0000002C0001002B00CC
:1014700000002B0000002B0000002B0001002A00C0
:1014800000002A0000002A0000002A0001002900B4
:1014900000002900000029000000290000002900A8
:1014A000010028000000280000002800000028009B
:1014B000000028000100270000002700000027008E
:1014C0000000270000002700010026000000260081
:1014D0000000260000002600000026000100250074
:1014E0000000250000002500000025000000250068
:1014F000000025000100240000002400000024005A
:10150000000024000000240001002300000023004C
:10151000000023000000230000002300000023003F
:101520000000230001002200000022000000220031
:101530000000220000002200000022000100210023
:101540000000210000002100000021000000210017
:101550000000210000002100010020000000200008
:1015600000002000000020000000200000002000FB
:10157000000020000000200001001F0000001F00EC
:1015800000001F0000001F0000001F0000001F00DF
:1015900000001F0001001E0000001E0000001E00D1
:1015A00000001E000000232C0000B8220000561886
:1015B00000003A0F0000B8080000B10400007102FA
:1015C00000003E0100002569792025696420256915
:1015D000682025696D2025697300D09ED185D0BB18
:1015E000D0B0D0B6D0B4D0B5D0BDD0B8D0B520D161
:1015F00081D182D0BED0BBD0B02E2E2E00D09DD0B7
:10160000B0D0B3D180D0B5D0B220D181D182D0BEFC
:10161000D0BBD0B02E2E2E0023646566696E652087
:1016200044454641554C545F004B6420004B6920B3
:10163000004B702000504944204175746F74756EE2
:10164000652066696E697368656421205075742031
:10165000746865206C617374204B702C204B69207A
:10166000616E64204B6420636F6E7374616E74737B
:101670002066726F6D2062656C6F7720696E746F83
:1016800020436F6E66696775726174696F6E2E684C
:101690000A00504944204175746F74756E65206668
:1016A00061696C6564212074696D656F75740A00E9
:1016B0000A20436C617373696320504944200A0017
:1016C000204B643A2000204B693A2000204B703AAE
:1016D00020000A204E6F206F76657273686F6F74FA
:1016E0000A002054753A2000204B753A2000206DE6
:1016F00061783A2000206D696E3A200020643A201B
:101700000020626961733A20005049442041757499
:101710006F74756E652073746172740A0050494469
:10172000204175746F74756E65206661696C6564BF
:10173000212054656D706572617475726520746FD7
:101740006F20686967680A00504944204175746FCA
:1017500074756E65206661696C6564212042616400
:10176000206578747275646572206E756D6265723D
:101770000A004572723A207574663820666F6E747E
:10178000206E6F7420696E697469616C697A656432
:101790002E00FFE0FFD140A0C8A6A22FF80023AC86
:1017A00000AF10FFFEFF05FFD0FFE0FFC1FFD1E259
:1017B00040A0C8A6A22FF800238127AC00AFFFD01D
:1017C000FF64FFD1A5FFD0FF64FF64FFD1A4FFD069
:1017D000FFFED092D18BD0B3D180D183D0B7D0BA15
:1017E000D0B020D0BCD0BC00D097D0B0D0B3D18086
:1017F000D183D0B7D0BAD0B020D0BCD0BC00D09468
:10180000D0B8D0B0D0BCD0B5D182D18020D184D0D6
:10181000B8D0BBD0B0D0BCD0B5D0BDD182D0B00094
:101820004520D0B220D0BCD0BCC2B300200820D00C
:10183000A4D0B0D0BAD182D0BED18000200820D0B0
:101840009CD0B0D0BAD18100200820D09CD0B8D094
:10185000BD00D090D0B2D182D0BED182D0B5D0BCA4
:10186000D0BFD0B5D180D0B0D182D183D180D0B01B
:101870000056D0BFD183D182D0B5D1882E20D0BC24
:10188000D0B8D0BD0056D0BCD0B8D0BD0056D0BC6A
:10189000D0B0D0BAD18120450056D0BCD0B0D0BA9B
:1018A000D181205A0056D0BCD0B0D0BAD1812059B5
:1018B0000056D0BCD0B0D0BAD18120580041D0BCA5
:1018C000D0B0D0BAD18120450041D0BCD0B0D0BA80
:1018D000D181205A0041D0BCD0B0D0BAD18120599A
:1018E0000041D0BCD0B0D0BAD181205800412DD019
:1018F000BFD183D182D0B5D1882E00412DD0B2D1B5
:1019000082D18FD0B3D0B8D0B2D0B0D0BDD0B8D003
:10191000B5006563686F3A004572726F723A000AEB
:101920004D6561737572656420706F696E74733A8A
:101930000A00357835206D6573682E205A206F6651
:10194000667365743A2000486F74656E6420746F26
:101950006F20636F6C640A004D3630303A20D09DA2
:10196000D0B8D0B7D0BAD0B0D18F20D0A2005365B4
:101970006E64204D31303820746F20726573756D40
:10198000650A0053656E64204D31303820746F2035
:1019900068656174206E6F7A7A6C650A00496E73AF
:1019A0006572742066696C616D656E7420616E6429
:1019B0002073656E64204D3130380A00D097D0B066
:1019C000D0B3D180D183D0B7D0B8D182D18C20D040
:1019D000BDD0B0D181D182D180D0BED0B9D0BAD063
:1019E000B800D0A1D0BED185D180D0B0D0BDD0B804
:1019F000D182D18C20D0BDD0B0D181D182D180D044
:101A0000BED0B9D0BAD0B800D094D180D183D0B3F1
:101A1000D0B8D0B520D0BDD0B0D181D182D180D0C6
:101A2000BED0B9D0BAD0B800D092D0ABD093D0A0AD
:101A3000D0A3D097D09AD09020D0A4D098D09BD0CB
:101A400090D09CD095D09DD0A2D09000D097D0902F
:101A5000D093D0A0D0A3D097D09AD09020D0A4D0AB
:101A600098D09BD090D09CD095D09DD0A2D0900003
:101A700046494C414D454E54204348414E47450050
:101A8000D092D0B5D180D0BDD183D182D18C20D09D
:101A9000BDD0B0D181D182D180D0BED0B9D0BAD0A2
:101AA000B800D09DD0B0D0B3D180D0B5D0B2204155
:101AB000425320D0BFD180D0B0D0B2D0BAD0B00085
:101AC000D09DD0B0D0B3D180D0B5D0B220504C4151
:101AD00020D0BFD180D0B0D0B2D0BAD0B000D09A90
:101AE000D0BED0BDD182D180D0B0D181D182204CA6
:101AF0004344004D37303220542564004D36303099
:101B000020423020542564004D373032203B25647C
:101B1000004D3730312054256400D092D0BED0B76C
:101B2000D0BED0B1D0BDD0BED0B2D0B8D182D18CD1
:101B300020D0BFD0B5D187D0B0D182D18C00D09287
:101B4000D18BD0B4D0B0D0B2D0B8D182D18C20D08B
:101B5000B5D189D19100D09ED09FD0A6D098D098F1
:101B600020D092D09ED097D09ED091D09DD09ED0A4
:101B700092D09BD095D09DD098D0AF3A00D09FD036
:101B800095D0A7D090D0A2D0AC20D09DD09020D01E
:101B90009FD090D0A3D097D095002020D0A1D0BEC8
:101BA000D0BFD0BBD0B03A2000D098D0BDD0B4D0F8
:101BB000B8D0B3D0BE00D0A1D0B8D0BDD0B8D0B9C5
:101BC00000D097D0B5D0BBD191D0BDD18BD0B900CA
:101BD000D096D191D0BBD182D18BD0B900D09ED13B
:101BE00080D0B0D0BDD0B6D0B5D0B2D18BD0B900F6
:101BF000D0A4D0B8D0BED0BBD0B5D182D0BED0B2E8
:101C0000D18BD0B900D09AD180D0B0D181D0BDD104
:101C10008BD0B900D091D0B5D0BBD18BD0B900500A
:101C200061726B696E672E2E2E000000D09ED0B6BA
:101C3000D0B8D0B4D0B0D0B9D182D0B500D0BDD05A
:101C4000B0D187D0B0D0BBD0B020D181D0BCD0B57E
:101C5000D0BDD18B00D184D0B8D0BBD0B0D0BCD057
:101C6000B5D0BDD182D0B000D09ED0B6D0B8D0B45F
:101C7000D0B0D0B9D182D0B500D0B2D18BD0B3D151
:101C800080D183D0B7D0BAD0B800D184D0B8D0BB7F
:101C9000D0B0D0BCD0B5D0BDD182D0B000D09DD016
:101CA000B0D0B3D180D0B5D0B220D181D0BED0BF1A
:101CB000D0BBD0B000D096D0B4D0B8D182D0B52EA1
:101CC0002E2E0000D09DD0B0D0B6D0BCD0B8D182DE
:101CD000D0B520D0BAD0BDD0BED0BFD0BAD183202D
:101CE000D0B4D0BBD18F00D0BDD0B0D0B3D180D0D4
:101CF000B5D0B2D0B020D181D0BED0BFD0BBD0B093
:101D00002E2E2E0000D092D181D182D0B0D0B2D16F
:101D10008CD182D0B520D0BFD180D183D182D0BE2A
:101D2000D0BA00D0B820D0BDD0B0D0B6D0BCD0B8DA
:101D3000D182D0B520D0BAD0BDD0BED0BFD0BAD11C
:101D40008300D0B4D0BBD18F20D0BFD180D0BED043
:101D5000B4D0BED0BBD0B6D0B5D0BDD0B8D18F0036
:101D6000D09ED0B6D0B8D0B4D0B0D0B9D182D0B592
:101D700000D0B7D0B0D0B3D180D183D0B7D0BAD053
:101D8000B820D0BFD180D183D182D0BAD0B00000EA
:101D9000507265737320427574746F6E00746F2097
:101DA000726573756D65207072696E740000D09EE7
:101DB000D0B6D0B8D0B4D0B0D0B9D182D0B500D0E0
:101DC000B2D0BED0B7D0BED0B1D0BDD0BED0B2D0D0
:101DD000BBD0B5D0BDD0B8D18F00D0BFD0B5D187E2
:101DE000D0B0D182D0B800D09ED0B6D0B8D0B4D0C8
:101DF000B0D0B9D182D0B500D18DD0BAD181D18245
:101E0000D180D183D0B7D0B8D0B800D184D0B8D0E9
:101E1000BBD0B0D0BCD0B5D0BDD182D0B000000610
:101E20000C00FE0000000000D1D1000700000005FA
:101E3000070706000050007088F0807000060C0054
:101E4000FE0000000000CBCF0005000000050505E6
:101E50000600008888C8A8C804050506010080801F
:101E6000E090E0040505060100E0107010E00505B3
:101E70000506000090A8E8A890040505060100707A
:101E80009070509000060C00FE0000000000AFC9EA
:101E90000008FE00000507070600007888887828FB
:101EA000488805050506000070087888780507074A
:101EB0000600007080F0888888700505050600001F
:101EC000F088F088F0050505060000F88080808025
:101ED0000506060600FF30505050F8880505050637
:101EE00000007088F08070050505060000A87020CD
:101EF00070A8050505060000708830887005050586
:101F00000600008898A8C8880508080600008870A0
:101F1000008898A8C88804050506010090A0C0A004
:101F2000900505050600003848484888050505065F
:101F3000000088D8A888880505050600008888F86C
:101F400088880505050600007088888870050505E5
:101F5000060000F8888888880507070600FEF088D4
:101F60008888F080800505050600007088808870EC
:101F7000050505060000F8202020200507070600BB
:101F8000FE888888887808700509090600FE2020E8
:101F900070A8A8A87020200505050600008850201C
:101FA00050880507070600FE90909090F8080805F5
:101FB0000505060000888878080805050506000064
:101FC000A8A8A8A8F80507070600FEA8A8A8A8F8CA
:101FD000080800060C00FE0000000000ABAD000782
:101FE000000000050707060000888888C8A8A8C860
:101FF000040707060100808080E09090E005070755
:102000000600007088087808887000060C00FE0042
:10201000000000009AA80007FE0000050707060060
:10202000008890A0C0A090880507070600003848E7
:10203000484848488805070706000088D8A88888C7
:102040008888050707060000888888F8888888053A
:1020500007070600007088888888887005070706CB
:102060000000F8888888888888050707060000F03F
:102070008888F080808005070706000070888080CF
:10208000808870050707060000F820202020202007
:102090000507070600008888888878087005070704
:1020A0000600002070A8A8A87020050707060000F9
:1020B000888850205088880509090600FE90909075
:1020C000909090F80808050707060000888888782F
:1020D000080808050707060000A8A8A8A8A8A8F8E7
:1020E00000060C00FE000000000090980007FF00B2
:1020F00000050707060000708888F88888880507AB
:1021000007060000F08080F08888F00507070600C9
:1021100000F08888F08888F0050707060000F8803E
:1021200080808080800508080600FF3050505050A5
:1021300050F888050707060000F88080F08080F8D6
:10214000050707060000A8A8702070A8A8050707C3
:1021500006000070880870088870050707060000F0
:10216000888898A8C88888000C0D00FE07022603FE
:10217000BC01FFFE0AFE08FE05080806000040F04C
:10218000C88888987810050808060000C0F8888874
:10219000888888F80505050600012030F8302005FC
:1021A00008080600002070F820202020E00509091A
:1021B0000600FF2070A8A8B88888702005060606CB
:1021C0000001E08CEA8C8A0A0509090600FFF8A8DC
:1021D0008888888888A8F8050A0A0600FE205050DA
:1021E000505088A8A8887003030306000340A0404D
:1021F000FFFFFFFFFFFFFFFFFFFFFFFFFFFFFFFFEF
:10220000FFFFFFFFFFFF0000000605FF01070706B5
:10221000020080808080800080030303060105A007
:10222000A0A005060606000050F85050F850050919
:10223000090600FF2070A8A07028A87020050707D5
:10224000060000C8C810204098980507070600003F
:1022500040A0A040A890680103030602058080808A
:102260000309090601FF2040408080804040200390
:1022700009090601FF8040402020204040800507DA
:102280000706000020A8702070A82005050506009C
:10229000012020F820200203030601FFC040800532
:1022A0000101060003F8020202060100C0C0050792
:1022B00007060000081010204040800507070600B0
:1022C00000708898A8C8887003070706010040C0FE
:1022D00040404040E00507070600007088081020D5
:1022E00040F8050707060000F80810300888700558
:1022F000070706000010305090F810100507070679
:102300000000F880F0080888700507070600003014
:102310004080F0888870050707060000F808101054
:1023200020202005070706000070888870888870C4
:102330000507070600007088887808106002050508
:10234000060100C0C000C0C00206060601FFC0C0F2
:1023500000C04080030505060101204080402005A3
:102360000303060002F800F803050506010180409A
:1023700020408005070706000070881020200020FC
:102380000507070600007088B8A8B8807005070721
:10239000060000708888F88888880507070600000E
:1023A000F04848704848F00507070600007088802C
:1023B00080808870050707060000F04848484848B4
:1023C000F0050707060000F88080F08080F8050718
:1023D00007060000F88080F080808005070706006F
:1023E000007088808098887005070706000088883C
:1023F00088F8888888030707060100E040404040CD
:1024000040E0050707060000381010101090600526
:1024100007070600008890A0C0A09088050707065F
:102420000000808080808080F80507070600008813
:10243000D8A8888888880507070600008888C8A863
:102440009888880507070600007088888888887043
:10245000050707060000F08888F0808080050707E0
:1024600006000070888888A89068050707060000A5
:10247000F08888F0A0908805070706000070888023
:1024800070088870050707060000F820202020202B
:102490002005070706000088888888888870050757
:1024A0000706000088888888505020050707060026
:1024B0000088888888A8A850050707060000888833
:1024C0005020508888050707060000888850202083
:1024D0002020050707060000F80810204080F803B8
:1024E00009090601FFE080808080808080E0050788
:1024F000070600008040402010100803090906016B
:10250000FFE020202020202020E005030306000516
:102510002050880501010600FEF8030303060105AB
:1025200080402005050506000070087888780507BA
:10253000070600008080F0888888F0050505060001
:1025400000708080887005070706000008087888FA
:102550008888780505050600007088F080700507FA
:1025600007060000304840E04040400507070600ED
:10257000FE7088888878087005070706000080804C
:10258000F0888888880307070601004000C04040A3
:1025900040E00409090601FE1000301010101090F0
:1025A0006005070706000080808890E09088030798
:1025B00007060100C04040404040E0050505060018
:1025C00000D0A8A8A8A8050505060000B0C88888FE
:1025D00088050505060000708888887005070706CD
:1025E00000FEF0888888F080800507070600FE78E6
:1025F000888888780808050505060000B0C880802E
:102600008005050506000078807008F005070706BC
:1026100000002020F820202018050505060000886D
:102620008888986805050506000088888850200578
:1026300005050600008888A8A850050505060000C5
:1026400088502050880507070600FE88888850209B
:102650004080050505060000F8102040F803090930
:102660000601FF204040408040404020010909060B
:1026700002FF8080808080808080800309090601BD
:10268000FF80404040204040408005030306000298
:1026900048A890FFFFFFFFFFFFFFFFFFFFFFFFFFC7
:1026A000FFFFFFFFFFFFFFFFFFFFFFFFFFFFFFFF3A
:1026B000FFFFFFFF0000000605FF010707060200FD
:1026C000800080808080800507070600FF2070A8BA
:1026D000A0A87020050707060000304840E04048E9
:1026E000B0050505060000A8508850A80507070694
:1026F00000008850F820F82020010707060200801B
:10270000808000808080040808060100708060904E
:10271000906010E0030101060107A006070706000C
:10272000007884B4A4B4847803050506010460A08D
:102730006000E00505050600002850A050280503AC
:1027400003060001F80808030101060103E006077B
:10275000070600007884B4A4A4847805010106006B
:1027600007F8040404060105609090600507070659
:1027700000002020F8202000F80305050601044091
:10278000A02040E0030505060104C0204020C0034E
:1027900003030601052040800507070600FE888820
:1027A0008898E8808005080806000078E8E8E8686E
:1027B000282828020202060203C0C0030202060102
:1027C000FE20C003050506010440C04040E00305AB
:1027D0000506010540A04000E0050505060000A033
:1027E000502850A0050A0A06000040C0485060501A
:1027F000B0507810050A0A06000040C048506050EA
:10280000A8081038050A0A060000C0204830E05029
:10281000B0507810050707060000200020204088EF
:1028200070050A0A060000402000708888F8888831
:1028300088050A0A060000102000708888F8888839
:1028400088050A0A060000205000708888F88888E9
:1028500088050A0A06000068B000708888F8888831
:10286000880509090600005000708888F888888863
:10287000050A0A060000205020708888F888888899
:1028800005070706000078A0A0F0A0A0B805090978
:102890000600FE708880808088701060050A0A0635
:1028A0000000402000F88080F08080F8050A0A06C9
:1028B0000000102000F88080F08080F8050A0A06E9
:1028C0000000205000F88080F08080F8050909069B
:1028D00000005000F88080F08080F8030A0A0601AA
:1028E00000804000E04040404040E0030A0A06010A
:1028F00000204000E04040404040E0030A0A06015A
:102900000040A000E04040404040E00309090601CB
:1029100000A000E04040404040E0050707060000FE
:10292000704848E8484870050A0A06000068B00088
:102930008888C8A8988888050A0A060000402000F0
:1029400070888888888870050A0A060000102000B0
:1029500070888888888870050A0A06000020500060
:1029600070888888888870050A0A06000068B000A8
:1029700070888888888870050909060000500070F2
:1029800088888888887005050506000188502050D1
:10299000880509090600FF087098A8A8A8C87080D3
:1029A000050A0A0600004020008888888888887008
:1029B000050A0A0600001020008888888888887028
:1029C000050A0A06000020500088888888888870D8
:1029D00005090906000050008888888888887005E5
:1029E0000A0A0600001020008888502020202004B9
:1029F000070706010080E0909090E0800507070639
:102A00000000708890A09088B0050808060000407B
:102A1000200070087888780508080600001020005B
:102A200070087888780508080600002050007008B3
:102A300078887805080806000068B0007008788873
:102A400078050707060000500070087888780508A8
:102A500008060000205020700878887805050506D3
:102A60000000702870A0780507070600FE708880B7
:102A7000887010600508080600004020007088F08B
:102A800080700508080600001020007088F0807033
:102A90000508080600002050007088F080700507C7
:102AA0000706000050007088F080700308080601D7
:102AB00000804000C0404040E003080806010020BC
:102AC0004000C0404040E003080806010040A0006C
:102AD000C0404040E0030707060100A000C040409E
:102AE00040E00509090600005020500878888888D1
:102AF0007005080806000068B000B0C8888888051E
:102B000008080600004020007088888870050808C2
:102B100006000010200070888888700508080600EC
:102B2000002050007088888870050808060000683A
:102B3000B000708888887005070706000050007094
:102B4000888888700505050600012000F80020052A
:102B500005050600007898A8C8F0050808060000DA
:102B6000402000888888887005080806000010202A
:102B700000888888887005080806000020500088B2
:102B800088888870050707060000500088888888B4
:102B900070050A0A0600FE10200088888850204030
:102BA000800509090600FE8080F0888888F0808012
:102BB0000509090600FE50008888885020408008DA
:102BC0000090988700E02008009AA8D6000A200804
:102BD00000ABAD3800D21F0800AFC94E01841E08FB
:102BE00000CBCF48003C1E0800D1D11E001E1ED0D5
:102BF000A2D0B5D0BCD0BFD0B5D180D0B0D182D119
:102C000083D180D0B000D09FD180D0B5D0B4D0BD1A
:102C1000D0B0D0B3D180D0B5D0B22041425300D093
:102C20009FD180D0B5D0B4D0BDD0B0D0B3D180D0FA
:102C3000B5D0B220504C41004B20D0BFD180D0BE87
:102C4000D0B4D0B2D0B8D0B6D0B5D0BDD0B8D18F76
:102C500000D09AD183D0BBD0B5D18000D0A1D0BE56
:102C6000D0BFD0BBD0BE005A20D181D182D0BED03F
:102C7000BBD0B000D09CD0B5D0BDD18E00D09DD0FF
:102C8000B0D0B3D180D0B5D0B220504C4120D1814A
:102C9000D0BED0BFD0BBD0BE00D09DD0B0D0B3D1BD
:102CA00080D0B5D0B220504C4120D181D182D0BE4D
:102CB000D0BB00D09DD0B0D0B3D180D0B5D0B220A1
:102CC00041425320D181D0BED0BFD0BBD0BE00D0B6
:102CD0009DD0B0D0B3D180D0B5D0B22041425320E6
:102CE000D181D182D0BED0BB00D09ED185D0BBD007
:102CF000B0D0B6D0B4D0B5D0BDD0B8D0B500D09C8F
:102D0000D0B8D0BAD180D0BED188D0B0D0B3205AFC
:102D100000D09FD0BED182D0BED0BA00D0A1D0BA50
:102D2000D0BED180D0BED181D182D18C0020627939
:102D30007465733B20637263200053657474696E1D
:102D400067732053746F72656420280045455052A4
:102D50004F4D206461746173697A65206572726F8A
:102D6000722E0A002073746F726564207365747428
:102D7000696E677320726574726965766564202870
:102D800000202863616C63756C6174656429210A95
:102D90000020213D2000454550524F4D20435243D5
:102DA000206D69736D61746368202D202873746FC2
:102DB000726564292000496E6465783A2000204DD0
:102DC00061726C696E3D563736290A00454550528E
:102DD0004F4D2076657273696F6E206D69736D61FA
:102DE0007463682028454550524F4D3D0000005CFB
:102DF0004300005C4300004D430000000100000060
:102E00000100008000555555000000400033333369
:102E100000AAAA2A004992240000002000C7711CC1
:102E20000099991900D1451700555515003BB1136C
:102E3000002449120011111100000010000F0F0FA3
:102E400000E3380E0043790D00CCCC0C00C3300CED
:102E500000E8A20B0064210B00AAAA0A00703D0A38
:102E6000009DD80900427B090092240900DCD308A8
:102E700000888808001042080000000800F0C10720
:102E8000008787070075500700711C07003EEB069E
:102E900000A1BC06006990060066660600703E064A
:102EA000006118060017F4050074D105005BB00539
:102EB00000B290050062720500555505007839058D
:102EC00000B81E0500050505004EEC040087D4047B
:102ED00000A1BD040090A7040049920400C17D0434
:102EE00000EE690400C7560400444404005C320448
:102EF000000821040041100400000004003FF0031A
:102F000000F8E0030026D20300C3C30300CCB503DE
:102F1000003AA803000A9B0300388E0300C0810317
:102F2000009F750300D0690300505E03001D53032A
:102F30000034480300913D03003333030016290396
:102F400000381F030097150300300C030003030330
:102F5000000BFA020049F10200BAE802005CE0024C
:102F6000002DD802002DD0020059C80200B0C002C6
:102F70000031B90200DAB10200AAAA0200A0A3023D
:102F800000BC9C0200FA9502005C8F0200DF880200
:102F90000082820200457C02002776020027700230
:102FA00000436A02007C640200D05E02003F5902C6
:102FB00000C8530200FFFDFCFAF8F6F4F2F0EEEC64
:102FC000EAE9E7E5E3E1E0DEDCDAD9D7D5D4D2D02F
:102FD000CFCDCBCAC8C7C5C3C2C0BFBDBCBAB9B7C5
:102FE000B6B4B3B2B0AFADACAAA9A8A6A5A4A2A12D
:102FF000A09E9D9C9A99989795949392908F8E8D70
:103000008B8A8988878684838281807F7E7D7B7A94
:10301000797877767574737271706F6E6D6C6B6A98
:10302000696867666564636261605F5E5D5C5B5A88
:103030005958585756555453525150504F4E4D4C65
:103040004B4A4A4948474646454443424241403F2D
:103050003E3E3D3C3B3B3A393838373635353433E4
:1030600032323130302F2E2E2D2C2B2B2A2929288D
:10307000272726252524232322212120201F1E1E29
:103080001D1C1C1B1B1A19191818171616151514B8
:10309000131312121111100F0F0E0E0D0D0C0C0B3D
:1030A0000A0A0909080807070606050504040303B8
:1030B00002020100004A756E6374696F6E204465F8
:1030C000760045D188D0B0D0B32FD0BCD0BC005A48
:1030D000D188D0B0D0B32FD0BCD0BC0059D188D0CB
:1030E000B0D0B32FD0BCD0BC0058D188D0B0D0B3B2
:1030F0002FD0BCD0BC00D098D0BDD0B8D186D0B82D
:10310000D0B0D0BBD0B8D0B7D0B0D186D0B8D18FE6
:10311000004D34323800D098D0B7D0BDD0B0D18770
:10312000D0B0D0BBD18CD0BDD18BD0B920454550CB
:10313000524F4D00D0A4D0B8D0BBD0B0D0BCD0B589
:10314000D0BDD18200D0A8D0B0D0B32FD0BCD0BCDD
:1031500000D0A0D18BD0B2D0BED0BA00D0A3D18144
:10316000D0BAD0BED180D0B5D0BDD0B8D0B500D007
:1031700091D18BD181D182D180D0BED182D0B0000B
:10318000D097D0B0D0BFD0BED0BCD0BDD0B8D18247
:10319000D18C20D0BFD0B0D180D0BAD0BED0B2D0E8
:1031A000BAD18300D092D18BD180D0B0D0B2D0BD73
:1031B000D0B8D0B2D0B0D0BDD0B8D0B520D0B3D078
:1031C000BED182D0BED0B2D0BE2100D0A1D0BBD063
:1031D000B5D0B4D183D18ED189D0B0D18F20D18256
:1031E000D0BED187D0BAD0B0002569202F20257558
:1031F0000047323920533100D09DD0B0D0B6D0BC7A
:10320000D0B8D182D0B520D187D182D0BED0B1D1B3
:103210008B20D0BDD0B0D187D0B0D182D18C00D09E
:103220009DD183D0BBD0B5D0B2D0BED0B520D0BF59
:10323000D0BED0BBD0BED0B6D0B5D0BDD0B8D0B542
:1032400000D092D18BD181D0BED182D0B020D1819B
:10325000D0BFD0B0D0B4D0B000D09AD0B0D0BBD016
:10326000B8D0B1D180D0BED0B2D0B0D182D18C2074
:10327000D181D182D0BED0BB00687474703A2F2F38
:103280006D61726C696E66772E6F726700322E30D8
:103290002E352E34002020506C616E6E65724275A2
:1032A0006666657242797465733A200020467265DD
:1032B00065204D656D6F72793A2000436F6D7069BE
:1032C0006C65643A205365702020312032303230F2
:1032D0000A00204C61737420557064617465643A0F
:1032E00020323032302D30372D3039207C2041755E
:1032F00074686F723A202852657777616E290A00E8
:1033000076322E302E350A004D61726C696E2D4179
:1033100049334D00322E302E352E340A004D617265
:103320006C696E0020536F66747761726520526518
:103330007365740A00205761746368646F67205274
:10334000657365740A002042726F776E206F757422
:103350002052657365740A002045787465726E6149
:103360006C2052657365740A00506F7765725570F2
:103370000A006175746F25632E670047323858590B
:10338000004D31303031006572726F722077726992
:1033900074696E6720746F2066696C650A00446FFB
:1033A0006E6520736176696E672066696C652E0AAA
:1033B000004D323900D0ADD0BDD0B4D181D182D052
:1033C000BED0BFD18B002553202563202563202547
:1033D0006320256300656E6473746F707320686981
:1033E000743A200001FFFFFFFFFFFFFFFFFFFFFF19
:1033F000FFFF0FFFFFFFFFFFFFFFFFFFFFFFFFFFCD
:103400001E0000000000000000000007FFFF380061
:1034100000000000000000000003FFFF700000003B
:103420000000000000000001FFFF6000000000003D
:10343000000000000000FFFF60000000000000002E
:10344000000000007FFFC0000000000000000078C6
:1034500000003FFFC00FC0FC000000000078180013
:103460001FFFC03FE1FF0000000000783C000FFF9D
:10347000C07FF3FF8000000000783C0007FFC0FF22
:10348000FFFFC000000000783C0003FFC1F87F8709
:10349000E00000000078000001FFC1F03F03E00001
:1034A00000000078000000FFC1E01E01E01F0003E3
:1034B000E0783C03F07FC1E01E01E07FC00FF878A8
:1034C0003C07FC3FC1E01E01E1FFE01FFC783C0F20
:1034D000FE1FC1E01E01E3FFF03FFE783C1FFE0F20
:1034E000C1E01E01E3F3F83F3E783C3F3F07C1E0F7
:1034F0001E01E7E0FC7C1F783C3E1F07C1E01E0177
:10350000E7C07C7C0F783C3C0F03C1E01E01E780E4
:103510007C780F783C3C0F03C1E01E01E7803C78CB
:1035200000783C3C0F03C1E01E01E7803C78007846
:103530003C3C0F03C1E01E01E7803C7800783C3C36
:103540000F03C1E01E01E7C03C7800783C3C0F034C
:10355000C1E01E01E3E03C78007C3C3C0F03C1E08D
:103560001E01E3FF3FF8007FBC3C0F03C1E01E01DA
:10357000E1FF3FF8003FBFFC0F03C1E01E01E0FF89
:103580003FF8001FBFFC0F03C1E01E01E07F3FF8C2
:10359000000FBFFC0F0360000000000000000000EF
:1035A00000000007600000000000000000000000B4
:1035B0000006700000000000000000000000000E87
:1035C000380000000000000000000000001C1E0089
:1035D0000000000000000000000000780FFFFFFF67
:1035E000FFFFFFFFFFFFFFFFFFF001FFFFFFFFFFF8
:1035F000FFFFFFFFFFFFFF80D0A1D182D0BED0BB75
:1036000000453100626564002C2073797374656D28
:103610002073746F707065642120486561746572F1
:103620005F49443A2000D0A0D0B0D0B7D0BED0B3CC
:10363000D180D0B5D0B220D0BDD0B520D183D0B408
:10364000D0B0D0BBD181D18F0048656174696E67FD
:10365000206661696C6564004D31313220536875B4
:1036600074646F776E00202D20496E76616C6964FA
:10367000206578747275646572206E756D6265720E
:1036800020210A00D0A3D091D095D093D090D09D86
:10369000D098D09520D0A2D095D09FD09BD090002C
:1036A000546865726D616C2052756E617761790046
:1036B000D09ED188D0B8D0B1D0BAD0B03A20D0A264
:1036C00020D0BCD0B0D0BAD1812E004D4158544545
:1036D0004D502074726967676572656400D09ED131
:1036E00088D0B8D0B1D0BAD0B03A20D0A220D0BCC7
:1036F000D0B8D0BD2E004D494E54454D5020747267
:1037000069676765726564004D3834205820592018
:103710005A2045001000C90210012C01400122016D
:1037200070011801B0010E01F00104015002FA000D
:10373000B002F0003003E600D003DC009004D200B9
:103740007005C800A006BE000008B400B009AA00B9
:10375000D00BA000600E960060118C000015820056
:1037600020197800C01D6E00A0226400B0275A0006
:10377000902C500000314600E0343C0010383200FC
:10378000903A2800603C1E00A03D1400803E0A00D4
:10379000203F000070012C0190012701B00122019F
:1037A000C0011D01F00118011002130130020E01C9
:1037B0006002090190020401C002FF000003FA0048
:1037C0004003F5008003F000D003EB002004E60086
:1037D0007004E100E004DC004005D700C005D20021
:1037E0004006CD00D006C8008007C3003008BE00E8
:1037F000F008B900C009B400B00AAF00B00BAA00CD
:10380000D00CA500000EA000500F9B00C010960029
:103810005012910000148C00C0158700B017820070
:10382000B0197D00D01B7800001E730040206E0090
:1038300090226900F024640040275F0090295A001C
:10384000E02B5500102E500020304B001032460067
:10385000E033410090353C001037370070383200BB
:10386000A0392D00B03A2800A03B2300603C1E0088
:10387000103D1900903D1400103E0F00703E0A00EC
:10388000C03E0500003F0000403FFBFF803FF6FFC9
:10389000C03FF1FF00D09FD0B0D183D0B7D0B020CF
:1038A000D0BFD0B5D187D0B0D182D0B800D09AD017
:1038B000B0D180D182D0B020D0B8D0B7D0B2D0BBF8
:1038C000D0B5D187D0B5D0BDD0B000D09AD0B0D1CE
:1038D00080D182D0B020D0B2D181D182D0B0D0B24C
:1038E000D0BBD0B5D0BDD0B000D09FD0B5D187D09F
:1038F000B0D182D18C20D0BED182D0BCD0B5D0BDC9
:10390000D0B5D0BDD0B0004D323520500A4D323444
:103910000020746F6F206C6F6E672065787472750D
:1039200073696F6E2070726576656E7465640A00E7
:1039300020636F6C6420657874727573696F6E2094
:1039400070726576656E7465640A00202F002042EF
:10395000403A0020403A0020573A007C3C3E5E2B23
:103960003D3F2F5B5D3B2C2A225C00D092D18BD057
:10397000BAD0BB00D092D0BAD0BB00D09DD0B0D1CD
:1039800081D182D180D0BED0B9D0BAD0B800D0AF6A
:10399000D180D0BAD0BED181D182D18C00D0A3D178
:1039A00080D0BED0B2D0B5D0BDD18C20D0B1D0B5F2
:1039B000D0BBD0BED0B3D0BE00D0A3D180D0BED0BB
:1039C000B2D0B5D0BDD18C20D181D0B8D0BDD0B5CA
:1039D000D0B3D0BE00D0A3D180D0BED0B2D0B5D0AD
:1039E000BDD18C20D0B7D0B5D0BBD191D0BDD0BE89
:1039F000D0B3D0BE00D0A3D180D0BED0B2D0B5D08D
:103A0000BDD18C20D0BAD180D0B0D181D0BDD0BEB4
:103A1000D0B3D0BE00D09DD0B0D181D182D180D0E2
:103A2000BED0B9D0BAD0B020D0BFD0BED0B4D18132
:103A3000D0B2D0B5D182D0BAD0B800D0A1D0B2D057
:103A4000BED0B920D186D0B2D0B5D18220D0BFD0DF
:103A5000BED0B4D181D0B2D0B5D182D0BAD0B80066
:103A6000D09FD180D0B5D0B4D183D181D182D0B014
:103A7000D0BDD0BED0B2D0BAD0B820D181D0B2D0D3
:103A8000B5D182D0B000D0A1D0B2D0B5D18220D0F3
:103A9000BFD0BE20D183D0BCD0BED0BBD187D0B0E8
:103AA000D0BDD0B8D18E00D09FD0BED0B4D181D0FF
:103AB000B2D0B5D182D0BAD0B000D09ED181D1825F
:103AC000D0B0D0BDD0BED0B2D0B8D182D18C00D0D1
:103AD000A1D0BCD0B5D0BDD0B020D184D0B8D0BB9F
:103AE000D0B0D0BCD0B5D0BDD182D0B000507265BE
:103AF0006865617420437573746F6D00D09DD0B09C
:103B0000D0B7D0B0D0B4004D323100D0A1D0BCD0AD
:103B1000B5D0BDD0B8D182D18C20534420D0BAD0FA
:103B2000B0D180D182D183004D3630302042300078
:103B3000D09FD180D0BED0B4D0BED0BBD0B6D0B88C
:103B4000D182D18C20D0BFD0B5D187D0B0D182D195
:103B50008C00D09DD0B5D18220534420D0BAD0B0B3
:103B6000D180D182D18B00D09DD0B0D181D182D1F2
:103B700080D0BED0B8D182D18C00D09ED181D182EC
:103B8000D0B0D0BDD0BED0B2D0B8D182D18C20D0F0
:103B9000BFD0B5D187D0B0D182D18C00D093D0BB6B
:103BA000D0B0D0B2D0BDD18BD0B920D18DD0BAD1C8
:103BB00080D0B0D0BD002053697A653A20004D32E4
:103BC000332025730046696C652073656C656374EA
:103BD00065640A0046696C65206F70656E65643ABD
:103BE0002000454E4420535542524F5554494E45AE
:103BF0000A002220706F73002220706172656E745B
:103C00003A2200535542524F5554494E45204341A4
:103C10004C4C207461726765743A22007472796941
:103C20006E6720746F2063616C6C207375622D6702
:103C3000636F64652066696C6573207769746820BA
:103C4000746F6F206D616E79206C6576656C732E74
:103C5000204D4158206C6576656C2069733A310AB5
:103C60000057726974696E6720746F2066696C65AD
:103C70003A2000667265736800646F696E67004E73
:103C80006F772000026F70656E206661696C6564F5
:103C90002C2046696C653A2000010210202008089B
:103CA000102040102040800201020108040201019E
:103CB0000204081020408080402010080402018087
:103CC00004020180402010080402010804020101DE
:103CD00002040810204080010204081020408000E7
:103CE000002200250028002B002E003100340002A5
:103CF000010000050108010B010505050507050880
:103D0000080808020202020A0A080804040404015E
:103D10000101010101010103030303030303030480
:103D20000707070C0C0C0C0C0C0C0C020202020610
:103D3000060606060606060B0B0B0B0B0B0B0B25DC
:103D400068753A253032687500256875642025301D
:103D50003268753A253032687500202020202020F6
:103D600020001FE020102010201010201020201014
:103D7000201030300840048003001FE03FF03FF087
:103D80003FF01FE01FE03FF03FF03FF00FC0078023
:103D900003003FFFF038007030FC3020FC1020782A
:103DA000102030102C00D02E31D02F7BD02F7BD084
:103DB0002E31D02C00D020301020781020FC103074
:103DC000FC303800703FFFF03FFFF0380070318664
:103DD000302387102787902F87D02F03D0203010D3
:103DE0002078102078102030102F03D02F87D02774
:103DF00087902387103186303800703FFFF01FFF17
:103E0000F81FFFF8041040020820020820041040A8
:103E1000082080104100104100082080041040005C
:103E200000001FFFF81FFFF8D09FD0B5D187D0B09A
:103E3000D182D18C20D18120534420D0BAD0B0D1AE
:103E400080D182D18B00D09FD0B5D187D0B0D18224
:103E5000D18C20D0BDD0B020D0BFD0B0D183D0B7CE
:103E6000D0B500D09FD0B0D180D0BAD183D0B92006
:103E700025732573257320D181D0BDD0B0D187D0D3
:103E8000B0D0BBD0B000220A00556E6B6E6F776E5B
:103E900020636F6D6D616E643A2022006933204D9E
:103EA00065676120D0B3D0BED182D0BED0B22E0023
:103EB0005072696E74696E672E2E2E0020453A008E
:103EC000205A3A0020593A004F46460A004661649B
:103ED000652048656967687420004661696C65649F
:103EE00020746F20656E61626C6520426564204CB1
:103EF0006576656C696E670A004D6573682042657A
:103F000064204C6576656C20646174613A0A0049EE
:103F10006E76616C6964206D6573682E0A00206E90
:103F20006F7420656E74657265642E0A00206F667A
:103F300020004D424C2047323920706F696E74204A
:103F4000004A206F7574206F662072616E6765206D
:103F500028302D0049206F7574206F662072616EC5
:103F600067652028302D004D6573682070726F6280
:103F7000696E6720646F6E652E0A005374617274F7
:103F8000206D6573682070726F62696E6720776953
:103F900074682022473239205331222066697273B7
:103FA000742E0A004732380A4732392053320068EB
:103FB0006173206E6F20646174612E0A004D657319
:103FC0006820426564204C6576656C696E672000E8
:103FD00053206F7574206F662072616E67652028AC
:103FE000302D35292E0A00204D393220580020204E
:103FF0004D61783A200020204D696E3A2000536FC1
:10400000667420656E6473746F70733A2000204983
:104010006E76616C6964206578747275646572206F
:1040200000000000C0000000000000000000004888
:104030004200004842000080400202040000A0400C
:104040000000A0400000004000005E4300005C4310
:1040500000004D43FFFFFF6F70656E0054524947EB
:104060004745524544007A325F6D696E007A5F6D54
:10407000696E00795F6D696E00785F6D696E0052E0
:1040800065706F7274696E6720656E6473746F70AB
:10409000207374617475730A00D092D0BED0B7D00B
:1040A000B2D180D0B0D18220D0BDD0B520D183D0C4
:1040B000B4D0B0D0BBD181D18F005761726E696E20
:1040C000673A20486F6D696E672042756D702044B5
:1040D000697669736F72203C20310A003F00D09EE0
:1040E000D182D0BCD0B5D0BDD0B000D094D0B2D0A9
:1040F000B8D0B6D0B5D0BDD0B8D0B500D09AD0B079
:10410000D0BBD0B8D0B1D180D0BED0B2D0BAD0B0B0
:1041100020D181D182D0BED0BBD0B000D09DD0B054
:10412000D187D0B0D0BBD0BE20D0BFD0B5D187D042
:10413000B0D182D0B800D09FD0B5D187D0B0D182D5
:10414000D18C0043616E6E6F7420656E7465722051
:104150007375626469723A2000022E2E004D383465
:1041600000D092D18BD0BAD0BBD18ED187D0B8D16C
:1041700082D18C20D0B4D0B2D0B8D0B3D0B0D1825C
:10418000D0B5D0BBD0B80047323800D09FD0B0D126
:1041900080D0BAD0BED0B2D0BAD0B02058595A00D0
:1041A000D094D0B2D0B8D0B6D0B5D0BDD0B8D0B5FC
:1041B00020D0BFD0BE205A00D094D0B2D0B8D0B654
:1041C000D0B5D0BDD0B8D0B5202573D0BCD0BC0000
:1041D000D094D0B2D0B8D0B6D0B5D0BDD0B8D0B5CC
:1041E00020302E31D0BCD0BC00D094D0B2D0B8D0CA
:1041F000B6D0B5D0BDD0B8D0B52031D0BCD0BC0081
:10420000D094D0B2D0B8D0B6D0B5D0BDD0B8D0B59B
:10421000203130D0BCD0BC00D094D0B2D0B8D0B611
:10422000D0B5D0BDD0B8D0B520D0BFD0BE20D0BE84
:10423000D181D18FD0BC00D0A1D0BED0BFD0BBD057
:10424000BE20D0BDD0B520D0BDD0B0D0B3D180D0AD
:10425000B5D182D0BE00D0ADD0BAD181D182D180CB
:10426000D183D0B4D0B5D18000D094D0B2D0B8D062
:10427000B6D0B5D0BDD0B8D0B520D0BFD0BE2059B3
:1042800000D094D0B2D0B8D0B6D0B5D0BDD0B8D0D0
:10429000B520D0BFD0BE2058000000210024002748
:1042A000002A002D00300033000101000004010746
:1042B000010A01000020002300260029002C002F05
:1042C0000032000001000003010601090100000A9C
:1042D0000B02090C0D0E080703040100000000008A
:1042E00000000000000000000000000000000000CE
:1042F000000000000000000000121110000000008B
:1043000000000000000000000000000000000000AD
:1043100000000043616E6E6F74206F70656E2073D5
:104320007562646972200053442063617264206F77
:104330006B0A006F70656E526F6F74206661696CF6
:1043400065640A00766F6C756D652E696E69742000
:104350006661696C65640A00534420696E69742063
:104360006661696C0A00205200454550524F4D204D
:10437000496E697469616C697A65640A00486172A2
:1043800064636F6465642044656661756C74205372
:10439000657474696E6773204C6F616465640A00AC
:1043A0003B200020204D3630332000205500466948
:1043B0006C616D656E74206C6F61642F756E6C6FCF
:1043C0006164206C656E677468733A0020204D3913
:1043D0003030204B004C696E65617220416476611B
:1043E0006E63653A0020204D3235302043004C4347
:1043F0004420436F6E74726173743A0020204D3311
:10440000303420500020204D3330312050005049AE
:10441000442073657474696E67733A002046002007
:10442000480020204D3134352053004D61746572B1
:1044300069616C2068656174757020706172616D6E
:1044400065746572733A0020204D36363600456E2D
:104450006473746F702061646A7573746D656E74D3
:104460003A002020473239205334205A0020204778
:10447000323920533320490020204D34323020532C
:10448000004D65736820426564204C6576656C69F3
:104490006E673A0020204D323036205800486F6D4C
:1044A00065206F66667365743A00204A0020204DCF
:1044B000323035204200416476616E6365643A2093
:1044C000423C6D696E5F7365676D656E745F74699C
:1044D0006D655F75733E20533C6D696E5F66656503
:1044E00064726174653E20543C6D696E5F747261E4
:1044F00076656C5F66656564726174653E204A3CF2
:104500006A756E635F6465763E0020540020204D1E
:10451000323034205000416363656C6572617469A8
:104520006F6E2028756E6974732F7332293A20508C
:104530003C7072696E745F616363656C3E20523CCF
:10454000726574726163745F616363656C3E20546D
:104550003C74726176656C5F616363656C3E0020DC
:10456000204D3230312058004D6178696D756D20D5
:10457000416363656C65726174696F6E2028756E46
:104580006974732F7332293A0020204D3230332062
:1045900058004D6178696D756D206665656472615E
:1045A0007465732028756E6974732F73293A0053EC
:1045B000746570732070657220756E69743A00209E
:1045C000204D3230302044300A0020204D3230302F
:1045D0002044002044697361626C65640A00466986
:1045E0006C616D656E742073657474696E67733A7F
:1045F0000020204D3134392043203B20556E697412
:104600007320696E2043656C736975730A002028F6
:104610006D6D29002020473231202020203B20557D
:104620006E69747320696E206D6D000000FA43009E
:1046300000F0420000C040000070420000A04200B4
:1046400000A0420000C8430000C843B80B0000D0DF
:104650000700003C000000102700004361703A0092
:10466000656E7175657565696E672022006F6B00F8
:10467000526573656E643A200020436F756E742036
:10468000583A0000FF00910111241FBECFEFD1E284
:10469000DEBFCDBF00E00CBF13E0A0E0B2E0E4EC71
:1046A000FBE602E00BBF02C007900D92A234B107F7
:1046B000D9F72CE1A2E4B3E001C01D92A830B20703
:1046C000E1F713E2C3E4D3E200E006C02197010959
:1046D000802FFE010F943F33C234D10780E00807DA
:1046E000A9F70F94991C0D94D0350C9400002F92CB
:1046F0003F924F925F926F927F928F929F92AF9272
:10470000BF92CF92DF92EF92FF920F931F93CF93BE
:10471000DF93CDB7DEB7A7970FB6F894DEBF0FBE15
:10472000CDBF8FA320914E032EA381E080934E0333
:104730008091D6198D3409F4C9C2843511F40C94D2
:10474000DD34873411F00C94F8348091D4199091B1
:10475000D5198C31910509F466C18CF4843091052A
:1047600009F408C11CF4029790F1ACC2853191059F
:1047700011F40C94FA344B9709F43BC1A3C28A3567
:10478000910509F464C144F48D31910509F45BC1CC
:104790008A9709F4D1C196C28B35910509F45BC1A2
:1047A0008C35910509F08EC282E9282E82E0382EE0
:1047B00091EEE92E98E1F92E88E492E09DA38CA376
:1047C00027ECC22E28E1D22E00E010E085C18091B6
:1047D000330C813011F00C94FA344DEEC42E48E1C4
:1047E000D42E58E4E52E52E0F52E67ECA62E68E1B3
:1047F000B62E10E088E5810F0E940F63882311F127
:104800000E948F622B013C01812F0E94E9EF8823D7
:1048100051F0F7012081318142815381C301B201FE
:104820000F94483309C0F5012081318142815381C1
:10483000C301B2010F944733F60160837183828311
:1048400093830AC0F70180819181A281B381F6012F
:1048500080839183A283B3831F5FF4E0CF0ED11CCA
:1048600024E0E20EF11C34E0A30EB11C133011F66B
:1048700085E40E940F63882301F10E948F626B011F
:104880007C0183E00E94E9EF882371F020915402BB
:10489000309155024091560250915702C701B6011E
:1048A0000F9448336B017C01C092F918D092FA182A
:1048B000E092FB18F092FC1810C080915402909185
:1048C0005502A0915602B09157028093F918909327
:1048D000FA18A093FB18B093FC1840E050E0BA011E
:1048E00086E40E942B5020E030E0A9010F94CB34E5
:1048F000181684F40E948F6220E030E040E752E412
:104900000F94CB3360937502709376028093770295
:104910009093780280919E1383FD28C080910C06AD
:10492000882321F120915402309155024091560282
:10493000509157026091F9187091FA188091FB1804
:104940009091FC180F9447332091190630911A0664
:1049500040911B0650911C060F9448336093190632
:1049600070931A0680931B0690931C060E9413FAFC
:104970000C94FA3480E50E940F63882329F00E948A
:104980001EF16B017C0103C0C12CD12C760183E5A3
:104990000E940F63882361F00E948F6220E030E064
:1049A0004AE754E40F94AA2C0F9444346B017C0121
:1049B0000E940B958091A50C811105C060E08DEEE1
:1049C00095E00E94DEB20F941D0AC60ED71EE81EA7
:1049D000F91E0F941D0ADC01CB018C199D09AE094B
:1049E000BF09B7FD02C00C94FA3480E00E94DC39A4
:1049F000F0CF0E94C4ED81110C94FA348CE0E6E80B
:104A0000F2E0DE01119601900D928A95E1F760E0E7
:104A100070E080E50E94D0F0BE016F5F7F4F0E9482
:104A200059AE0C94FA3480919A188770873011F03F
:104A30000C94033560E08FE40E946AF281110C94BB
:104A4000FA340C9403350E9452F50C94FA34109207
:104A50004D030C94FA348FE080934D030C94FA3498
:104A60000E948F622B013C01133049F0F601208136
:104A70003181428153810F9447332B013C01ECA1DA
:104A8000FDA12081318142815381C301B2010F9484
:104A900047334B015C012DEB37E346E855EB0F94B0
:104AA000CB3487FD21C02DEB37E346E855E3C50144
:104AB000B4010F94442C1816BCF01F5FF4E0EF0E05
:104AC000F11C2CA13DA12C5F3F4F3DA32CA334E052
:104AD000C30ED11C143031F1F10181911F010E94EC
:104AE0000F63882351F3BCCF133051F4409254022A
:104AF00050925502609256027092570201E0DDCF4B
:104B0000A5019401F70160817181828193810F94E5
:104B10004833F7016083718382839383812F0E94DE
:104B2000F3F9CBCF002321F084E592E00E941C959D
:104B30000E94FFFF0C94FA348091330C813011F005
:104B40000C94FA3489E40E940F63F82E882321F034
:104B50000E9446F4182F01C010E08AE40E940F63FF
:104B6000082F882319F00E9446F401C080E0FF203E
:104B700011F0153020F4002341F0853030F087EF3C
:104B800095E00E9400390C94FA3490E1E8E4F2E0F8
:104B9000ADEEB8E101900D929A95E1F7FF2091F00A
:104BA00094E01902F0011124ED56FA4E4081518132
:104BB000628173814093ED185093EE186093EF1863
:104BC0007093F018002391F024E08202F001112488
:104BD000E158FA4E80819181A281B3818093F118CE
:104BE0009093F218A093F318B093F41840E050E0BB
:104BF000BA0186E40E942B506B017C0120E030E07A
:104C0000A9010F94CB3418165CF420E030E040E7A3
:104C100052E4C701B6010F94CB336B017C0103C092
:104C2000C12CD12C76018090750290907602A090D4
:104C30007702B090780220E030E0A901C701B60108
:104C40000F94442C882341F0C0927502D0927602D2
:104C5000E0927702F0927802009173021091740250
:104C600084E690E09093740280937302C0903102C6
:104C7000D0903202E0903302F090340280E090E075
:104C8000A0E8BFE38093310290933202A0933302F5
:104C9000B09334020E9413FA8092750290927602C9
:104CA000A0927702B092780210937402009373027C
:104CB000C0923102D0923202E0923302F09234027A
:104CC0000C94FA340E94AAED0C94FA348091D41911
:104CD0009091D5198737910509F4B7C70CF0E0C05A
:104CE0008D34910509F4EDC30CF05DC08931910557
:104CF00009F492C21CF58431910509F41DC27CF4BB
:104D00008131910509F404C22CF4029708F4C8C15A
:104D10000C94DA34429709F40DC60C94DA348631D7
:104D2000910509F42EC20CF428C28731910509F4CB
:104D300031C2489709F443C20C94DA348E3191059C
:104D400009F4DEC2ACF48B31910509F47EC20CF497
:104D50006EC28C31910509F4CBC24D9711F00C94C1
:104D6000DA348091B2158E7F8093B2150C94FA34A8
:104D70008A32910509F488C34CF48F31910509F406
:104D800063C3809709F41DC30C94DA348B34910506
:104D900009F493C38C34910511F00C94DA340E9419
:104DA000C1900C94FA348B36910509F4CBC4D4F538
:104DB0008435910509F4BEC5E4F48135910509F403
:104DC0009CC534F48E34910509F47FC30C94DA3415
:104DD0008235910509F4A6C58335910511F00C942F
:104DE000DA3480914D038F7E806280934D030C9462
:104DF000FA348836910509F4FAC354F485359105DF
:104E000009F4C5C58C35910509F4E6C50C94DA346E
:104E10008936910509F464C48A36910509F474C48D
:104E20000C94DA348037910511F40C94FA348CF434
:104E30008D36910509F4FFC314F40C94FA348E36C0
:104E4000910509F489C48F36910509F498C40C942E
:104E5000DA348337910509F44CC68CF48137910517
:104E600009F4D1C48237910511F00C94DA340E9410
:104E700028EB88EF94E10F944E190C94FA3485379F
:104E8000910509F49FC68637910511F00C94DA3428
:104E90000091D2191091D31994E0F12C40E0B9C6D9
:104EA0008D3231E0930711F40C94F9300CF06FC09F
:104EB0008B3C910511F40C94662F74F581399105A2
:104EC00009F4D5C684F48937910509F4C9C60CF4F0
:104ED000BFC68D37910509F40CC58C38910509F4CE
:104EE000B7C40C94DA348E3B910509F4D6C454F45B
:104EF0008639910509F415C78B39910509F4D1C498
:104F00000C94DA34883C910509F473C7893C910507
:104F100009F4B9C70C94DA348C3D910511F40C9462
:104F2000BA2FB4F48D3C910511F40C948F2F14F426
:104F30000C94852F8E3C910511F40C949D2F833D8C
:104F4000910511F00C94DA340E947BF10C94FA3440
:104F50008A3F910511F40C94EB3164F48D3D910579
:104F600011F40C94E12F823E910511F40C9436302B
:104F70000C94DA348232F1E09F0711F40C94823001
:104F80008C32914011F40C94E4300C94DA34863F66
:104F900031E0930711F40C947B330CF042C08A3952
:104FA000F1E09F0711F40C94FA34C4F48F3231E02D
:104FB000930711F40C94443214F40C9400328033AF
:104FC000F1E09F0711F40C9478318039914011F091
:104FD0000C94DA340E940B950C94FA348C3A31E03C
:104FE000930711F40C941B336CF4843AF1E09F079F
:104FF00011F40C944732853A914011F40C944A32E2
:105000000C94DA34843F31E0930711F40C94783334
:10501000853F914011F00C94DA340F945E130C9498
:10502000FA348B35F2E09F0711F40C94A033C4F4EA
:10503000883F31E0930711F40C94873314F40C94F7
:105040007E338C30F2E09F0711F40C94983388354E
:10505000924011F00C94DA340E9459F40C94FA3412
:10506000803A33E0930709F4E1C16CF48A39F2E045
:105070009F0711F40C9418348438934011F40C9465
:1050800031340C94DA34873E33E0930711F40C94F6
:105090009A34893E934011F40C94A8340C94DA3479
:1050A00080E50E940F63882329F00E941EF16B01A6
:1050B0007C0103C0C12CD12C760183E50E940F63D3
:1050C000882361F00E948F6220E030E04AE754E4D8
:1050D0000F94AA2C0F9444346B017C010E940B9511
:1050E0008091D2199091D319009721F061E00E942C
:1050F00059B305C060E086E196E00E94DEB240E070
:10510000C701B6010E947F3F0E94DFEB0C94FA3486
:105110008091CE1984FF02C00C94CD358091D019B6
:1051200087FF02C00C94CD358091D119837011F0A6
:105130000C94CD350C94EA3586E596E00E94003952
:105140008AEC95E10E9465C98BE1EAECF5E1DE01AC
:10515000119601900D928A95E1F760E070E0CE0122
:1051600001960F94FC10CE0101960E946AC987E453
:1051700096E00E9400390C94FA340F946E0C0C9453
:10518000FA340E946CDB8091B215877F8093B21550
:105190000C94FA34E091D219F091D31980818823CC
:1051A00029F0803209F410823196F8CF60E08091C6
:1051B000D2199091D3190E94CDDB0C94FA348091CE
:1051C00016148823E9F080E090E0A0E0B0E488A322
:1051D00099A3AAA3BBA31C8E1D8E1E8E1F8E19829F
:1051E0001A821B821C8220E0AE01405E5F4FBE012E
:1051F000645E7F4FCE0101960E94B5670C94FA342D
:105200000E944F38882321F00E94EBDC0E944793D4
:105210000E94DFEB0C94FA348091B21582FF03C038
:105220008B7F8093B2150E9402F00C94FA34809127
:10523000B21583FD02C00C94FA3483E50E940F631B
:1052400081110C94F9350C94FA3483E40E94C662FF
:10525000882319F181E796E00E94003980911117A7
:10526000882391F0BE016F5F7F4F8EE097E10E942F
:105270002CC88E010F5F1F4FF80181918F01882389
:1052800039F00E94B038F8CF87E696E00E940039E6
:105290008AE00E94B0380C94FA348091B21582FFF3
:1052A00021C080E896E00E9400396091AE157091AF
:1052B000AF158091B0159091B1154AE00E94BD3FA5
:1052C0008FE20E94B0386091AA157091AB15809161
:1052D000AC159091AD154AE00E94BD3F0E94BB40C5
:1052E0000C94FA3482E996E00E9400390C94FA3466
:1052F0008091D2199091D3190E947DDB0C94FA34DD
:105300008091B21583FD02C00C94FA340E9490ED96
:105310008091B21583FD02C00C94FA344091D219E9
:105320005091D319BE01645E7F4F80E00E949EE0E1
:105330008C01009711F40C94FA346C8D7D8D1982D8
:105340001C8222E0AC01CE0101960E949ACD81110F
:1053500002C0F12C14C0CE0101960E940CE08823FB
:10536000C1F361E0CE0101960E9410C8009789F355
:1053700025EEFC0120831C820F94C00DF82ECE0177
:1053800001960E946AC9B801FF2089F08BEB96E074
:105390000E945F678AE00E94B0381092AE151092AA
:1053A000AF151092B0151092B1150C94FA3483EA2F
:1053B00096E00E945F6784EE9FE30E9400390C94A0
:1053C000FA348091B21582FD0E940B958091B2153E
:1053D00083FD02C00C94FA3460E080E50E946AF21A
:1053E000182F682F8091D2199091D3190E94CDDB8C
:1053F00083E50E940F63882381F00E947F62AB01E6
:10540000BC014093AE155093AF156093B0157093E7
:10541000B1158EE097E10F94E60F0E94EBDC1111BD
:105420000C94FA340E9447930C94FA342091D219C8
:105430003091D3199091B21592609093B215C90131
:105440000E947DDB0C94FA340E9472906C8F7D8FE9
:105450008E8F9F8FBE016F5F7F4FCE014C960E9453
:105460007B5860E0CE0101960E9459B30E94766796
:10547000BE016F5F7F4F89EC96E00E945F678AE014
:105480000E94B0380C94FA346DE070E080E50E9420
:105490004AF48C0197FF02C00C94FA34E82E60E0C5
:1054A00089E40E946AF281110C940A36802F0F94CD
:1054B0006C1B8111F8C50C940A360E9447930C941A
:1054C000FA340E94A3930C94FA3460E070E083E510
:1054D0000E944AF48E34910531F40E9414940E9483
:1054E000DFEB0C94FA348EE397E00E940039609170
:1054F0000D0670910E0685E397E00E943467609177
:105500000F067091100688E297E00E943467609160
:105510000D0670910E0680910F0690911006681B83
:10552000790B8091C618815021E030E0823010F074
:1055300020E030E0621B730B8DE197E00E9434673E
:105540008AE00E94B0388EE397E00E940039809193
:10555000110690911206A0911306B09114068C8F3B
:105560009D8FAE8FBF8FBE016F5F7F4FCE014C9678
:105570000E947B58BE016F5F7F4F80E197E00E94E1
:105580005F678091150690911606A0911706B0915D
:1055900018068C8F9D8FAE8FBF8FBE016F5F7F4FC0
:1055A000CE014C960E947B58BE016F5F7F4F80E01A
:1055B00097E00E945F6720E030E04AE754E46091A2
:1055C000190670911A0680911B0690911C060F9483
:1055D000CB33AB01BC0188EE96E00E9441678DE6BB
:1055E0000E94B0388AE00E94B0380C94FA3480915E
:1055F0009E1383FF02C00C94FA340E9442F187FF8D
:1056000002C00C94FA3483E50E940F63882379F07A
:105610000E948F620F943D34CB010E948BCE0E947A
:10562000CDA1811104C00E94A3930E94DFEB0F94CF
:10563000691C0C94FA3480919E1383FF02C00C9471
:10564000FA340E9442F1F82E87FF02C00C94FA341B
:1056500083E50E940F63082F811106C082E50E9436
:105660000F63182F882381F10E948F620F943D34BD
:10567000CB010E948BCE0E94CDA1882311F40C9403
:1056800047360E94479360919D1470919E14072E97
:10569000000C880B990B0F944B2C4B015C01409034
:1056A000991450909A1460909B1470909C14A301CC
:1056B00092010F94CB34181614F40C94673600231F
:1056C00011F40C944D3611E00F94691C112311F460
:1056D0000C94FA34602F8F2D0E9412CF0C94FA3460
:1056E0000E9442F1182F87FD0AC08DE696E40E94C1
:1056F0000039812F0E949BCE8AE00E94B0382EA1F3
:1057000020934E030C94053880E50E9426EE81110B
:105710000C94FA3481E40E94C662882321F06091DF
:10572000260D70E002C06FEF70E083E50E94D0F0BC
:105730008F3F910519F010F08FEF90E08093260DC8
:105740000C94FA3480E50E9426EE81110C94FA3410
:105750001092260D0C94FA348EE40E940F63882375
:1057600011F40C94FA340E947F6260937605709372
:10577000770580937805909379050C94FA3483E546
:105780000E94C662882329F083E50E9426EE80935A
:105790009E130E94766787E797E00E940039809108
:1057A0009E13882369F101E5E02E0BE0F02E00E066
:1057B00010E020E080919E1390E0A0E0B0E0002E89
:1057C00004C0B695A795979587950A94D2F780FF60
:1057D0000EC0DD24D394D20E222319F08CE20E9455
:1057E000B038F701859194910E9400392D2D0F5FFB
:1057F0001F4F32E0E30EF11C05301105D9F648CDFC
:1058000083E797E043CD83E50E940F63882381F00F
:105810000E942EF1282F30E02D33310524F480939F
:1058200000020C94FA348CE3809300020C94FA3456
:105830000E9476674091000250E060E070E08EE7E1
:1058400097E00E9423678AE00E94B0380C94FA34F3
:1058500080919E1383FF02C00C94FA3483E50E946A
:105860000F63882379F00E948F620F943D34633771
:10587000710514F063E770E07093011460930014F5
:105880000E945DA10E94CDA181110C94FA340E9466
:10589000A3930E94DFEB0C94FA340E94A7560C9459
:1058A000FA3483E50E940F63882311F40C94FA34D0
:1058B0000E942EF1182F90E0CD970CF01CE310936E
:1058C00046030F941D0A6B017C01212F30E0A8EEE6
:1058D000B3E00F94EE32C60ED71EE81EF91EC0923A
:1058E0004203D0924303E0924403F09245030C94A8
:1058F000FA340E9402F00C94FA340E94E0A10E9453
:10590000A3930E94CB960E944C3868EE73E080E02F
:1059100090E00E94FF6660E085E897E00E94DEB2BA
:105920000C94FA3480914D038F7D806180934D03F8
:105930000C94FA3483E50E940F638823A1F00E943F
:105940008F6220E030E04AE754E40F94AA2C0F94D1
:105950004434609301027093020280930302909397
:1059600004020C94FA348091CE1984FF02C00C9486
:105970006A368091D01987FF02C00C946A368091F4
:10598000D119837011F00C946A360C94D73483E5E6
:105990000E94C662882311F40C94FA340F941D0AF5
:1059A0006093101470931114809312149093131435
:1059B0000E948F6220E030E04AE754E40F94AA2C62
:1059C0000F944434609347037093480380934903D2
:1059D00090934A030C94FA340E9442F187FF02C06C
:1059E0000C94FA349091CE1994FD04C09091D01982
:1059F00097FF0AC0B2E9CB2EB2E0DB2E1FE9E12E01
:105A000013E1F12E10E00AC09091D119937091F733
:105A1000682F81E00E94E3F00C94FA34F601819142
:105A20006F010E940F63882309F459C0133009F0F5
:105A30004FC00E948F624B015C0120E030E040EAE1
:105A400051E40F94442C87FF3AC0A5019401609162
:105A5000BF137091C0138091C1139091C2130F9422
:105A6000CB332B013C019B01AC016091CF137091B2
:105A7000D0138091D1139091D2130F94AA2C6093DC
:105A8000CF137093D0138093D1139093D21360915E
:105A9000160D7091170D8091180D9091190D0F949E
:105AA000492CA30192010F94AA2C0F9444346093C3
:105AB000160D7093170D8093180D9093190D809209
:105AC000BF139092C013A092C113B092C21307C02B
:105AD0000E948F62F701648B758B868B978B1F5F9B
